{
  "contractName": "Voting",
  "abi": [
    {
      "inputs": [
        {
          "internalType": "bytes32[]",
          "name": "candidates",
          "type": "bytes32[]"
        }
      ],
      "payable": false,
      "stateMutability": "nonpayable",
      "type": "constructor"
    },
    {
      "constant": true,
      "inputs": [
        {
          "internalType": "bytes32",
          "name": "",
          "type": "bytes32"
        }
      ],
      "name": "votes",
      "outputs": [
        {
          "internalType": "uint256",
          "name": "",
          "type": "uint256"
        }
      ],
      "payable": false,
      "stateMutability": "view",
      "type": "function"
    },
    {
      "constant": true,
      "inputs": [
        {
          "internalType": "bytes32",
          "name": "candidate",
          "type": "bytes32"
        }
      ],
      "name": "totalCandidateVotes",
      "outputs": [
        {
          "internalType": "uint256",
          "name": "",
          "type": "uint256"
        }
      ],
      "payable": false,
      "stateMutability": "view",
      "type": "function"
    },
    {
      "constant": false,
      "inputs": [
        {
          "internalType": "bytes32",
          "name": "candidate",
          "type": "bytes32"
        }
      ],
      "name": "voteForCandidate",
      "outputs": [],
      "payable": false,
      "stateMutability": "nonpayable",
      "type": "function"
    },
    {
      "constant": true,
      "inputs": [
        {
          "internalType": "bytes32",
          "name": "candidate",
          "type": "bytes32"
        }
      ],
      "name": "validCandidate",
      "outputs": [
        {
          "internalType": "bool",
          "name": "",
          "type": "bool"
        }
      ],
      "payable": false,
      "stateMutability": "view",
      "type": "function"
    },
    {
      "constant": true,
      "inputs": [],
      "name": "getContractBalance",
      "outputs": [
        {
          "internalType": "uint256",
          "name": "",
          "type": "uint256"
        }
      ],
      "payable": false,
      "stateMutability": "view",
      "type": "function"
    }
  ],
  "bytecode": "0x608060405234801561001057600080fd5b506040516105083803806105088339818101604052602081101561003357600080fd5b810190808051604051939291908464010000000082111561005357600080fd5b8382019150602082018581111561006957600080fd5b825186602082028301116401000000008211171561008657600080fd5b8083526020830192505050908051906020019060200280838360005b838110156100bd5780820151818401526020810190506100a2565b5050505090500160405250505080600090805190602001906100e09291906100e7565b5050610159565b828054828255906000526020600020908101928215610123579160200282015b82811115610122578251825591602001919060010190610107565b5b5090506101309190610134565b5090565b61015691905b8082111561015257600081600090555060010161013a565b5090565b90565b6103a0806101686000396000f3fe608060405234801561001057600080fd5b50600436106100575760003560e01c80632b38cd961461005c578063392e66781461009e5780636f9fb98a146100e4578063cc9ab26714610102578063cd51372f14610130575b600080fd5b6100886004803603602081101561007257600080fd5b8101908080359060200190929190505050610172565b6040518082815260200191505060405180910390f35b6100ca600480360360208110156100b457600080fd5b810190808035906020019092919050505061018a565b604051808215151515815260200191505060405180910390f35b6100ec6101e0565b6040518082815260200191505060405180910390f35b61012e6004803603602081101561011857600080fd5b81019080803590602001909291905050506101e8565b005b61015c6004803603602081101561014657600080fd5b810190808035906020019092919050505061033c565b6040518082815260200191505060405180910390f35b60016020528060005260406000206000915090505481565b600080600090505b6000805490508110156101d55782600082815481106101ad57fe5b906000526020600020015414156101c85760019150506101db565b8080600101915050610192565b50600090505b919050565b600047905090565b6101f18161018a565b6101fa57600080fd5b60001515600260003373ffffffffffffffffffffffffffffffffffffffff1673ffffffffffffffffffffffffffffffffffffffff16815260200190815260200160002060009054906101000a900460ff161515146102c0576040517f08c379a00000000000000000000000000000000000000000000000000000000081526004018080602001828103825260128152602001807f7573657220616c726561647920766f746564000000000000000000000000000081525060200191505060405180910390fd5b6001806000838152602001908152602001600020600082825401925050819055506001600260003373ffffffffffffffffffffffffffffffffffffffff1673ffffffffffffffffffffffffffffffffffffffff16815260200190815260200160002060006101000a81548160ff02191690831515021790555050565b60006103478261018a565b61035057600080fd5b6001600083815260200190815260200160002054905091905056fea265627a7a7231582034bf9590fb2d0541018f94e6ce79967dc9fdba4e43e6b6926eb973615da1c8df64736f6c63430005100032",
  "source": "// specify compiler version\npragma solidity ^0.5.16;\n\ncontract Voting {\n    bytes32[] candidateList;\n\n    constructor(bytes32[] memory candidates) public {\n        candidateList = candidates;\n    }\n\n    // declare a map of candidate as key and number of votes as value\n    mapping(bytes32 => uint) public votes;\n\n    // return total votes for a given candidate\n    function totalCandidateVotes(bytes32 candidate) public view returns (uint) {\n        require(validCandidate(candidate));\n\n        return votes[candidate];\n    }\n\n    mapping(address => bool) private voted;\n\n    function voteForCandidate(bytes32 candidate) public {\n        require(validCandidate(candidate));\n        require(voted[msg.sender] == false, \"user already voted\");\n\n        votes[candidate] += 1;\n\n        voted[msg.sender] = true;\n    }\n\n    function validCandidate(bytes32 candidate) public view returns (bool) {\n        for (uint i = 0; i < candidateList.length; i++) {\n            if (candidateList[i] == candidate) {\n                return true;\n            }\n        }\n        return false;\n    }\n\n    function getContractBalance() public view returns (uint) {\n        return address(this).balance;\n    }\n}\n",
  "sourcePath": "/home/afani/web3_voting_app/contracts/Voting.sol",
  "compiler": {
    "name": "solc",
    "version": "0.5.16+commit.9c3226ce.Emscripten.clang"
  },
  "schemaVersion": "3.4.10",
  "updatedAt": "2022-10-25T19:24:33.463Z",
  "networkType": "ethereum",
  "devdoc": {
    "methods": {}
  },
  "userdoc": {
    "methods": {}
  }
}